{
  "contracts/EIP3074Protection.sol": {
    "OnlyEOAs": {
      "abi": [
        {
          "anonymous": false,
          "inputs": [
            {
              "indexed": false,
              "internalType": "uint256",
              "name": "txgas",
              "type": "uint256"
            },
            {
              "indexed": false,
              "internalType": "uint256",
              "name": "gaslimit",
              "type": "uint256"
            }
          ],
          "name": "GasInfo",
          "type": "event"
        },
        {
          "anonymous": false,
          "inputs": [
            {
              "indexed": false,
              "internalType": "bool",
              "name": "val",
              "type": "bool"
            }
          ],
          "name": "Success",
          "type": "event"
        },
        {
          "inputs": [],
          "name": "doSomething",
          "outputs": [],
          "stateMutability": "nonpayable",
          "type": "function"
        },
        {
          "inputs": [],
          "name": "doSomethingElse",
          "outputs": [],
          "stateMutability": "nonpayable",
          "type": "function"
        }
      ],
      "evm": {
        "bytecode": {
          "linkReferences": {},
          "object": "608060405260008060006101000a81548160ff02191690831515021790555034801561002a57600080fd5b5061044c8061003a6000396000f3fe608060405234801561001057600080fd5b50600436106100365760003560e01c806354fc2cb21461003b5780638269267914610045575b600080fd5b61004361004f565b005b61004d610140565b005b6000808054906101000a900460ff16610114577f284ecdab9e42c4fda2a8f8b25e83af4985dafb306fd73b9302cf4e10a0e1becb5a456040516100939291906102dd565b60405180910390a1603f6040456100aa9190610317565b6100b49190610348565b5a116100f5576040517f08c379a00000000000000000000000000000000000000000000000000000000081526004016100ec906102bd565b60405180910390fd5b60016000806101000a81548160ff021916908315150217905550600190505b61011c610140565b801561013d5760008060006101000a81548160ff0219169083151502179055505b50565b6000808054906101000a900460ff16610205577f284ecdab9e42c4fda2a8f8b25e83af4985dafb306fd73b9302cf4e10a0e1becb5a456040516101849291906102dd565b60405180910390a1603f60404561019b9190610317565b6101a59190610348565b5a116101e6576040517f08c379a00000000000000000000000000000000000000000000000000000000081526004016101dd906102bd565b60405180910390fd5b60016000806101000a81548160ff021916908315150217905550600190505b7f3b0a8ddef325df2bfdfa6b430ae4c8421841cd135bfa8fb5e432f200787520bb600160405161023591906102a2565b60405180910390a1801561025e5760008060006101000a81548160ff0219169083151502179055505b50565b61026a816103a2565b82525050565b600061027d602083610306565b915061028882610416565b602082019050919050565b61029c816103ae565b82525050565b60006020820190506102b76000830184610261565b92915050565b600060208201905081810360008301526102d681610270565b9050919050565b60006040820190506102f26000830185610293565b6102ff6020830184610293565b9392505050565b600082825260208201905092915050565b6000610322826103ae565b915061032d836103ae565b92508261033d5761033c6103e7565b5b828204905092915050565b6000610353826103ae565b915061035e836103ae565b9250817fffffffffffffffffffffffffffffffffffffffffffffffffffffffffffffffff0483118215151615610397576103966103b8565b5b828202905092915050565b60008115159050919050565b6000819050919050565b7f4e487b7100000000000000000000000000000000000000000000000000000000600052601160045260246000fd5b7f4e487b7100000000000000000000000000000000000000000000000000000000600052601260045260246000fd5b7f4f6e6c7920454f41732063616e2063616c6c207468697320636f6e747261637460008201525056fea164736f6c6343000804000a",
          "opcodes": "PUSH1 0x80 PUSH1 0x40 MSTORE PUSH1 0x0 DUP1 PUSH1 0x0 PUSH2 0x100 EXP DUP2 SLOAD DUP2 PUSH1 0xFF MUL NOT AND SWAP1 DUP4 ISZERO ISZERO MUL OR SWAP1 SSTORE POP CALLVALUE DUP1 ISZERO PUSH2 0x2A JUMPI PUSH1 0x0 DUP1 REVERT JUMPDEST POP PUSH2 0x44C DUP1 PUSH2 0x3A PUSH1 0x0 CODECOPY PUSH1 0x0 RETURN INVALID PUSH1 0x80 PUSH1 0x40 MSTORE CALLVALUE DUP1 ISZERO PUSH2 0x10 JUMPI PUSH1 0x0 DUP1 REVERT JUMPDEST POP PUSH1 0x4 CALLDATASIZE LT PUSH2 0x36 JUMPI PUSH1 0x0 CALLDATALOAD PUSH1 0xE0 SHR DUP1 PUSH4 0x54FC2CB2 EQ PUSH2 0x3B JUMPI DUP1 PUSH4 0x82692679 EQ PUSH2 0x45 JUMPI JUMPDEST PUSH1 0x0 DUP1 REVERT JUMPDEST PUSH2 0x43 PUSH2 0x4F JUMP JUMPDEST STOP JUMPDEST PUSH2 0x4D PUSH2 0x140 JUMP JUMPDEST STOP JUMPDEST PUSH1 0x0 DUP1 DUP1 SLOAD SWAP1 PUSH2 0x100 EXP SWAP1 DIV PUSH1 0xFF AND PUSH2 0x114 JUMPI PUSH32 0x284ECDAB9E42C4FDA2A8F8B25E83AF4985DAFB306FD73B9302CF4E10A0E1BECB GAS GASLIMIT PUSH1 0x40 MLOAD PUSH2 0x93 SWAP3 SWAP2 SWAP1 PUSH2 0x2DD JUMP JUMPDEST PUSH1 0x40 MLOAD DUP1 SWAP2 SUB SWAP1 LOG1 PUSH1 0x3F PUSH1 0x40 GASLIMIT PUSH2 0xAA SWAP2 SWAP1 PUSH2 0x317 JUMP JUMPDEST PUSH2 0xB4 SWAP2 SWAP1 PUSH2 0x348 JUMP JUMPDEST GAS GT PUSH2 0xF5 JUMPI PUSH1 0x40 MLOAD PUSH32 0x8C379A000000000000000000000000000000000000000000000000000000000 DUP2 MSTORE PUSH1 0x4 ADD PUSH2 0xEC SWAP1 PUSH2 0x2BD JUMP JUMPDEST PUSH1 0x40 MLOAD DUP1 SWAP2 SUB SWAP1 REVERT JUMPDEST PUSH1 0x1 PUSH1 0x0 DUP1 PUSH2 0x100 EXP DUP2 SLOAD DUP2 PUSH1 0xFF MUL NOT AND SWAP1 DUP4 ISZERO ISZERO MUL OR SWAP1 SSTORE POP PUSH1 0x1 SWAP1 POP JUMPDEST PUSH2 0x11C PUSH2 0x140 JUMP JUMPDEST DUP1 ISZERO PUSH2 0x13D JUMPI PUSH1 0x0 DUP1 PUSH1 0x0 PUSH2 0x100 EXP DUP2 SLOAD DUP2 PUSH1 0xFF MUL NOT AND SWAP1 DUP4 ISZERO ISZERO MUL OR SWAP1 SSTORE POP JUMPDEST POP JUMP JUMPDEST PUSH1 0x0 DUP1 DUP1 SLOAD SWAP1 PUSH2 0x100 EXP SWAP1 DIV PUSH1 0xFF AND PUSH2 0x205 JUMPI PUSH32 0x284ECDAB9E42C4FDA2A8F8B25E83AF4985DAFB306FD73B9302CF4E10A0E1BECB GAS GASLIMIT PUSH1 0x40 MLOAD PUSH2 0x184 SWAP3 SWAP2 SWAP1 PUSH2 0x2DD JUMP JUMPDEST PUSH1 0x40 MLOAD DUP1 SWAP2 SUB SWAP1 LOG1 PUSH1 0x3F PUSH1 0x40 GASLIMIT PUSH2 0x19B SWAP2 SWAP1 PUSH2 0x317 JUMP JUMPDEST PUSH2 0x1A5 SWAP2 SWAP1 PUSH2 0x348 JUMP JUMPDEST GAS GT PUSH2 0x1E6 JUMPI PUSH1 0x40 MLOAD PUSH32 0x8C379A000000000000000000000000000000000000000000000000000000000 DUP2 MSTORE PUSH1 0x4 ADD PUSH2 0x1DD SWAP1 PUSH2 0x2BD JUMP JUMPDEST PUSH1 0x40 MLOAD DUP1 SWAP2 SUB SWAP1 REVERT JUMPDEST PUSH1 0x1 PUSH1 0x0 DUP1 PUSH2 0x100 EXP DUP2 SLOAD DUP2 PUSH1 0xFF MUL NOT AND SWAP1 DUP4 ISZERO ISZERO MUL OR SWAP1 SSTORE POP PUSH1 0x1 SWAP1 POP JUMPDEST PUSH32 0x3B0A8DDEF325DF2BFDFA6B430AE4C8421841CD135BFA8FB5E432F200787520BB PUSH1 0x1 PUSH1 0x40 MLOAD PUSH2 0x235 SWAP2 SWAP1 PUSH2 0x2A2 JUMP JUMPDEST PUSH1 0x40 MLOAD DUP1 SWAP2 SUB SWAP1 LOG1 DUP1 ISZERO PUSH2 0x25E JUMPI PUSH1 0x0 DUP1 PUSH1 0x0 PUSH2 0x100 EXP DUP2 SLOAD DUP2 PUSH1 0xFF MUL NOT AND SWAP1 DUP4 ISZERO ISZERO MUL OR SWAP1 SSTORE POP JUMPDEST POP JUMP JUMPDEST PUSH2 0x26A DUP2 PUSH2 0x3A2 JUMP JUMPDEST DUP3 MSTORE POP POP JUMP JUMPDEST PUSH1 0x0 PUSH2 0x27D PUSH1 0x20 DUP4 PUSH2 0x306 JUMP JUMPDEST SWAP2 POP PUSH2 0x288 DUP3 PUSH2 0x416 JUMP JUMPDEST PUSH1 0x20 DUP3 ADD SWAP1 POP SWAP2 SWAP1 POP JUMP JUMPDEST PUSH2 0x29C DUP2 PUSH2 0x3AE JUMP JUMPDEST DUP3 MSTORE POP POP JUMP JUMPDEST PUSH1 0x0 PUSH1 0x20 DUP3 ADD SWAP1 POP PUSH2 0x2B7 PUSH1 0x0 DUP4 ADD DUP5 PUSH2 0x261 JUMP JUMPDEST SWAP3 SWAP2 POP POP JUMP JUMPDEST PUSH1 0x0 PUSH1 0x20 DUP3 ADD SWAP1 POP DUP2 DUP2 SUB PUSH1 0x0 DUP4 ADD MSTORE PUSH2 0x2D6 DUP2 PUSH2 0x270 JUMP JUMPDEST SWAP1 POP SWAP2 SWAP1 POP JUMP JUMPDEST PUSH1 0x0 PUSH1 0x40 DUP3 ADD SWAP1 POP PUSH2 0x2F2 PUSH1 0x0 DUP4 ADD DUP6 PUSH2 0x293 JUMP JUMPDEST PUSH2 0x2FF PUSH1 0x20 DUP4 ADD DUP5 PUSH2 0x293 JUMP JUMPDEST SWAP4 SWAP3 POP POP POP JUMP JUMPDEST PUSH1 0x0 DUP3 DUP3 MSTORE PUSH1 0x20 DUP3 ADD SWAP1 POP SWAP3 SWAP2 POP POP JUMP JUMPDEST PUSH1 0x0 PUSH2 0x322 DUP3 PUSH2 0x3AE JUMP JUMPDEST SWAP2 POP PUSH2 0x32D DUP4 PUSH2 0x3AE JUMP JUMPDEST SWAP3 POP DUP3 PUSH2 0x33D JUMPI PUSH2 0x33C PUSH2 0x3E7 JUMP JUMPDEST JUMPDEST DUP3 DUP3 DIV SWAP1 POP SWAP3 SWAP2 POP POP JUMP JUMPDEST PUSH1 0x0 PUSH2 0x353 DUP3 PUSH2 0x3AE JUMP JUMPDEST SWAP2 POP PUSH2 0x35E DUP4 PUSH2 0x3AE JUMP JUMPDEST SWAP3 POP DUP2 PUSH32 0xFFFFFFFFFFFFFFFFFFFFFFFFFFFFFFFFFFFFFFFFFFFFFFFFFFFFFFFFFFFFFFFF DIV DUP4 GT DUP3 ISZERO ISZERO AND ISZERO PUSH2 0x397 JUMPI PUSH2 0x396 PUSH2 0x3B8 JUMP JUMPDEST JUMPDEST DUP3 DUP3 MUL SWAP1 POP SWAP3 SWAP2 POP POP JUMP JUMPDEST PUSH1 0x0 DUP2 ISZERO ISZERO SWAP1 POP SWAP2 SWAP1 POP JUMP JUMPDEST PUSH1 0x0 DUP2 SWAP1 POP SWAP2 SWAP1 POP JUMP JUMPDEST PUSH32 0x4E487B7100000000000000000000000000000000000000000000000000000000 PUSH1 0x0 MSTORE PUSH1 0x11 PUSH1 0x4 MSTORE PUSH1 0x24 PUSH1 0x0 REVERT JUMPDEST PUSH32 0x4E487B7100000000000000000000000000000000000000000000000000000000 PUSH1 0x0 MSTORE PUSH1 0x12 PUSH1 0x4 MSTORE PUSH1 0x24 PUSH1 0x0 REVERT JUMPDEST PUSH32 0x4F6E6C7920454F41732063616E2063616C6C207468697320636F6E7472616374 PUSH1 0x0 DUP3 ADD MSTORE POP JUMP INVALID LOG1 PUSH5 0x736F6C6343 STOP ADDMOD DIV STOP EXP "
        },
        "methodIdentifiers": {
          "doSomething()": "82692679",
          "doSomethingElse()": "54fc2cb2"
        }
      }
    }
  }
}