{
  "_format": "hh-sol-artifact-1",
  "contractName": "EIP3074ProtectionTest",
  "sourceName": "contracts/EIP3074Protection.sol",
  "abi": [
    {
      "inputs": [
        {
          "internalType": "contract OnlyEOAs",
          "name": "target",
          "type": "address"
        }
      ],
      "name": "tryCallingProtected",
      "outputs": [],
      "stateMutability": "nonpayable",
      "type": "function"
    }
  ],
  "bytecode": "0x608060405234801561001057600080fd5b50610155806100206000396000f3fe608060405234801561001057600080fd5b506004361061002b5760003560e01c806303fbaf5c14610030575b600080fd5b61004a600480360381019061004591906100c4565b61004c565b005b8073ffffffffffffffffffffffffffffffffffffffff1663826926796040518163ffffffff1660e01b8152600401600060405180830381600087803b15801561009457600080fd5b505af11580156100a8573d6000803e3d6000fd5b5050505050565b6000813590506100be81610131565b92915050565b6000602082840312156100d657600080fd5b60006100e4848285016100af565b91505092915050565b60006100f882610111565b9050919050565b600061010a826100ed565b9050919050565b600073ffffffffffffffffffffffffffffffffffffffff82169050919050565b61013a816100ff565b811461014557600080fd5b5056fea164736f6c6343000804000a",
  "linkReferences": {},
  "deployedLinkReferences": {}
}