{
  "_format": "hh-sol-artifact-1",
  "contractName": "OnlyEOAs",
  "sourceName": "contracts/EIP3074Protection.sol",
  "abi": [
    {
      "anonymous": false,
      "inputs": [
        {
          "indexed": false,
          "internalType": "uint256",
          "name": "txgas",
          "type": "uint256"
        },
        {
          "indexed": false,
          "internalType": "uint256",
          "name": "gaslimit",
          "type": "uint256"
        }
      ],
      "name": "GasInfo",
      "type": "event"
    },
    {
      "anonymous": false,
      "inputs": [
        {
          "indexed": false,
          "internalType": "bool",
          "name": "val",
          "type": "bool"
        }
      ],
      "name": "Success",
      "type": "event"
    },
    {
      "inputs": [],
      "name": "doSomething",
      "outputs": [],
      "stateMutability": "nonpayable",
      "type": "function"
    },
    {
      "inputs": [],
      "name": "doSomethingElse",
      "outputs": [],
      "stateMutability": "nonpayable",
      "type": "function"
    }
  ],
  "bytecode": "0x608060405260008060006101000a81548160ff02191690831515021790555034801561002a57600080fd5b5061044c8061003a6000396000f3fe608060405234801561001057600080fd5b50600436106100365760003560e01c806354fc2cb21461003b5780638269267914610045575b600080fd5b61004361004f565b005b61004d610140565b005b6000808054906101000a900460ff16610114577f284ecdab9e42c4fda2a8f8b25e83af4985dafb306fd73b9302cf4e10a0e1becb5a456040516100939291906102dd565b60405180910390a1603f6040456100aa9190610317565b6100b49190610348565b5a116100f5576040517f08c379a00000000000000000000000000000000000000000000000000000000081526004016100ec906102bd565b60405180910390fd5b60016000806101000a81548160ff021916908315150217905550600190505b61011c610140565b801561013d5760008060006101000a81548160ff0219169083151502179055505b50565b6000808054906101000a900460ff16610205577f284ecdab9e42c4fda2a8f8b25e83af4985dafb306fd73b9302cf4e10a0e1becb5a456040516101849291906102dd565b60405180910390a1603f60404561019b9190610317565b6101a59190610348565b5a116101e6576040517f08c379a00000000000000000000000000000000000000000000000000000000081526004016101dd906102bd565b60405180910390fd5b60016000806101000a81548160ff021916908315150217905550600190505b7f3b0a8ddef325df2bfdfa6b430ae4c8421841cd135bfa8fb5e432f200787520bb600160405161023591906102a2565b60405180910390a1801561025e5760008060006101000a81548160ff0219169083151502179055505b50565b61026a816103a2565b82525050565b600061027d602083610306565b915061028882610416565b602082019050919050565b61029c816103ae565b82525050565b60006020820190506102b76000830184610261565b92915050565b600060208201905081810360008301526102d681610270565b9050919050565b60006040820190506102f26000830185610293565b6102ff6020830184610293565b9392505050565b600082825260208201905092915050565b6000610322826103ae565b915061032d836103ae565b92508261033d5761033c6103e7565b5b828204905092915050565b6000610353826103ae565b915061035e836103ae565b9250817fffffffffffffffffffffffffffffffffffffffffffffffffffffffffffffffff0483118215151615610397576103966103b8565b5b828202905092915050565b60008115159050919050565b6000819050919050565b7f4e487b7100000000000000000000000000000000000000000000000000000000600052601160045260246000fd5b7f4e487b7100000000000000000000000000000000000000000000000000000000600052601260045260246000fd5b7f4f6e6c7920454f41732063616e2063616c6c207468697320636f6e747261637460008201525056fea164736f6c6343000804000a",
  "linkReferences": {},
  "deployedLinkReferences": {}
}